{
  "_format": "hh-sol-artifact-1",
  "contractName": "Pacienti",
  "sourceName": "contracts/Pacienti.sol",
  "abi": [
    {
      "inputs": [
        {
          "internalType": "bytes32",
          "name": "",
          "type": "bytes32"
        }
      ],
      "name": "hashuriPacienti",
      "outputs": [
        {
          "internalType": "bool",
          "name": "",
          "type": "bool"
        }
      ],
      "stateMutability": "view",
      "type": "function"
    },
    {
      "inputs": [
        {
          "internalType": "bytes32",
          "name": "hashPacient",
          "type": "bytes32"
        }
      ],
      "name": "salveazaHash",
      "outputs": [],
      "stateMutability": "nonpayable",
      "type": "function"
    },
    {
      "inputs": [
        {
          "internalType": "bytes32",
          "name": "hashPacient",
          "type": "bytes32"
        }
      ],
      "name": "verificaHash",
      "outputs": [
        {
          "internalType": "bool",
          "name": "",
          "type": "bool"
        }
      ],
      "stateMutability": "view",
      "type": "function"
    }
  ],
  "bytecode": "0x6080604052348015600f57600080fd5b5061020d8061001f6000396000f3fe608060405234801561001057600080fd5b50600436106100415760003560e01c80630aeb4dac146100465780630af04f5514610062578063618ba33714610092575b600080fd5b610060600480360381019061005b9190610174565b6100c2565b005b61007c60048036038101906100779190610174565b6100f0565b60405161008991906101bc565b60405180910390f35b6100ac60048036038101906100a79190610174565b610119565b6040516100b991906101bc565b60405180910390f35b600160008083815260200190815260200160002060006101000a81548160ff02191690831515021790555050565b600080600083815260200190815260200160002060009054906101000a900460ff169050919050565b60006020528060005260406000206000915054906101000a900460ff1681565b600080fd5b6000819050919050565b6101518161013e565b811461015c57600080fd5b50565b60008135905061016e81610148565b92915050565b60006020828403121561018a57610189610139565b5b60006101988482850161015f565b91505092915050565b60008115159050919050565b6101b6816101a1565b82525050565b60006020820190506101d160008301846101ad565b9291505056fea2646970667358221220ee590102f62c04fff5b71fe5ce4147c09c04ae7b217e790317468df880a57c0c64736f6c634300081c0033",
  "linkReferences": {},
  "deployedLinkReferences": {}
}